{
  "_format": "hh-sol-artifact-1",
  "contractName": "JoinGame",
  "sourceName": "contracts/JoinGame.sol",
  "abi": [
    {
      "inputs": [],
      "stateMutability": "nonpayable",
      "type": "constructor"
    },
    {
      "anonymous": false,
      "inputs": [
        {
          "indexed": false,
          "internalType": "address",
          "name": "_from",
          "type": "address"
        },
        {
          "indexed": false,
          "internalType": "uint256",
          "name": "_amount",
          "type": "uint256"
        }
      ],
      "name": "TransferReceived",
      "type": "event"
    },
    {
      "anonymous": false,
      "inputs": [
        {
          "indexed": false,
          "internalType": "address",
          "name": "_from",
          "type": "address"
        },
        {
          "indexed": false,
          "internalType": "address",
          "name": "_destAddr",
          "type": "address"
        },
        {
          "indexed": false,
          "internalType": "uint256",
          "name": "_amount",
          "type": "uint256"
        }
      ],
      "name": "TransferSent",
      "type": "event"
    },
    {
      "inputs": [],
      "name": "admin",
      "outputs": [
        {
          "internalType": "address",
          "name": "",
          "type": "address"
        }
      ],
      "stateMutability": "view",
      "type": "function"
    },
    {
      "inputs": [],
      "name": "balance",
      "outputs": [
        {
          "internalType": "uint256",
          "name": "",
          "type": "uint256"
        }
      ],
      "stateMutability": "view",
      "type": "function"
    },
    {
      "inputs": [],
      "name": "balanceOf",
      "outputs": [
        {
          "internalType": "uint256",
          "name": "",
          "type": "uint256"
        }
      ],
      "stateMutability": "view",
      "type": "function"
    },
    {
      "inputs": [
        {
          "internalType": "address",
          "name": "_user",
          "type": "address"
        }
      ],
      "name": "blacklisted",
      "outputs": [],
      "stateMutability": "nonpayable",
      "type": "function"
    },
    {
      "inputs": [],
      "name": "joinit",
      "outputs": [],
      "stateMutability": "nonpayable",
      "type": "function"
    },
    {
      "inputs": [],
      "name": "player",
      "outputs": [
        {
          "internalType": "address",
          "name": "",
          "type": "address"
        }
      ],
      "stateMutability": "view",
      "type": "function"
    },
    {
      "inputs": [
        {
          "internalType": "address",
          "name": "_user",
          "type": "address"
        }
      ],
      "name": "removeFromBlacklist",
      "outputs": [],
      "stateMutability": "nonpayable",
      "type": "function"
    },
    {
      "inputs": [
        {
          "internalType": "contract IERC20",
          "name": "token",
          "type": "address"
        },
        {
          "internalType": "address",
          "name": "to",
          "type": "address"
        },
        {
          "internalType": "uint256",
          "name": "amount",
          "type": "uint256"
        }
      ],
      "name": "transferERC20",
      "outputs": [],
      "stateMutability": "nonpayable",
      "type": "function"
    },
    {
      "inputs": [
        {
          "internalType": "uint256",
          "name": "amount",
          "type": "uint256"
        },
        {
          "internalType": "address payable",
          "name": "destAddr",
          "type": "address"
        }
      ],
      "name": "withdraw",
      "outputs": [],
      "stateMutability": "nonpayable",
      "type": "function"
    }
  ],
  "bytecode": "0x608060405234801561001057600080fd5b50336000806101000a81548173ffffffffffffffffffffffffffffffffffffffff021916908373ffffffffffffffffffffffffffffffffffffffff1602179055506110ab806100606000396000f3fe608060405234801561001057600080fd5b50600436106100925760003560e01c8063722713f711610066578063722713f7146100f75780639db5dbe414610115578063b69ef8a814610131578063dbac26e91461014f578063f851a4401461016b57610092565b8062f714ce1461009757806328b8c0e5146100b357806348db5f89146100bd578063537df3b6146100db575b600080fd5b6100b160048036038101906100ac91906109ba565b610189565b005b6100bb610353565b005b6100c5610396565b6040516100d29190610a1b565b60405180910390f35b6100f560048036038101906100f09190610a62565b6103bc565b005b6100ff610531565b60405161010c9190610a9e565b60405180910390f35b61012f600480360381019061012a9190610af7565b610572565b005b610139610781565b6040516101469190610a9e565b60405180910390f35b61016960048036038101906101649190610a62565b610787565b005b6101736108fd565b6040516101809190610a1b565b60405180910390f35b600260009054906101000a900473ffffffffffffffffffffffffffffffffffffffff1673ffffffffffffffffffffffffffffffffffffffff163373ffffffffffffffffffffffffffffffffffffffff161480610230575060008054906101000a900473ffffffffffffffffffffffffffffffffffffffff1673ffffffffffffffffffffffffffffffffffffffff163373ffffffffffffffffffffffffffffffffffffffff16145b61026f576040517f08c379a000000000000000000000000000000000000000000000000000000000815260040161026690610bcd565b60405180910390fd5b6001548211156102b4576040517f08c379a00000000000000000000000000000000000000000000000000000000081526004016102ab90610c39565b60405180910390fd5b8073ffffffffffffffffffffffffffffffffffffffff166108fc839081150290604051600060405180830381858888f193505050501580156102fa573d6000803e3d6000fd5b50816001600082825461030d9190610c88565b925050819055507ffda3a3e0e1479b43cb1c701f7576187f4c4ad80768d627387e00184302f7d88e33828460405161034793929190610d1b565b60405180910390a15050565b33600260006101000a81548173ffffffffffffffffffffffffffffffffffffffff021916908373ffffffffffffffffffffffffffffffffffffffff160217905550565b600260009054906101000a900473ffffffffffffffffffffffffffffffffffffffff1681565b60008054906101000a900473ffffffffffffffffffffffffffffffffffffffff1673ffffffffffffffffffffffffffffffffffffffff163373ffffffffffffffffffffffffffffffffffffffff161461044a576040517f08c379a000000000000000000000000000000000000000000000000000000000815260040161044190610d9e565b60405180910390fd5b600360008273ffffffffffffffffffffffffffffffffffffffff1673ffffffffffffffffffffffffffffffffffffffff16815260200190815260200160002060009054906101000a900460ff166104d6576040517f08c379a00000000000000000000000000000000000000000000000000000000081526004016104cd90610e0a565b60405180910390fd5b6000600360008373ffffffffffffffffffffffffffffffffffffffff1673ffffffffffffffffffffffffffffffffffffffff16815260200190815260200160002060006101000a81548160ff02191690831515021790555050565b6000600260009054906101000a900473ffffffffffffffffffffffffffffffffffffffff1673ffffffffffffffffffffffffffffffffffffffff1631905090565b60008054906101000a900473ffffffffffffffffffffffffffffffffffffffff1673ffffffffffffffffffffffffffffffffffffffff163373ffffffffffffffffffffffffffffffffffffffff1614610600576040517f08c379a00000000000000000000000000000000000000000000000000000000081526004016105f790610e76565b60405180910390fd5b60008373ffffffffffffffffffffffffffffffffffffffff166370a08231306040518263ffffffff1660e01b815260040161063b9190610a1b565b602060405180830381865afa158015610658573d6000803e3d6000fd5b505050506040513d601f19601f8201168201806040525081019061067c9190610eab565b9050808211156106c1576040517f08c379a00000000000000000000000000000000000000000000000000000000081526004016106b890610f24565b60405180910390fd5b8373ffffffffffffffffffffffffffffffffffffffff1663a9059cbb84846040518363ffffffff1660e01b81526004016106fc929190610f44565b6020604051808303816000875af115801561071b573d6000803e3d6000fd5b505050506040513d601f19601f8201168201806040525081019061073f9190610fa5565b507ffda3a3e0e1479b43cb1c701f7576187f4c4ad80768d627387e00184302f7d88e33848460405161077393929190610fd2565b60405180910390a150505050565b60015481565b60008054906101000a900473ffffffffffffffffffffffffffffffffffffffff1673ffffffffffffffffffffffffffffffffffffffff163373ffffffffffffffffffffffffffffffffffffffff1614610815576040517f08c379a000000000000000000000000000000000000000000000000000000000815260040161080c90610d9e565b60405180910390fd5b600360008273ffffffffffffffffffffffffffffffffffffffff1673ffffffffffffffffffffffffffffffffffffffff16815260200190815260200160002060009054906101000a900460ff16156108a2576040517f08c379a000000000000000000000000000000000000000000000000000000000815260040161089990611055565b60405180910390fd5b6001600360008373ffffffffffffffffffffffffffffffffffffffff1673ffffffffffffffffffffffffffffffffffffffff16815260200190815260200160002060006101000a81548160ff02191690831515021790555050565b60008054906101000a900473ffffffffffffffffffffffffffffffffffffffff1681565b600080fd5b6000819050919050565b61093981610926565b811461094457600080fd5b50565b60008135905061095681610930565b92915050565b600073ffffffffffffffffffffffffffffffffffffffff82169050919050565b60006109878261095c565b9050919050565b6109978161097c565b81146109a257600080fd5b50565b6000813590506109b48161098e565b92915050565b600080604083850312156109d1576109d0610921565b5b60006109df85828601610947565b92505060206109f0858286016109a5565b9150509250929050565b6000610a058261095c565b9050919050565b610a15816109fa565b82525050565b6000602082019050610a306000830184610a0c565b92915050565b610a3f816109fa565b8114610a4a57600080fd5b50565b600081359050610a5c81610a36565b92915050565b600060208284031215610a7857610a77610921565b5b6000610a8684828501610a4d565b91505092915050565b610a9881610926565b82525050565b6000602082019050610ab36000830184610a8f565b92915050565b6000610ac4826109fa565b9050919050565b610ad481610ab9565b8114610adf57600080fd5b50565b600081359050610af181610acb565b92915050565b600080600060608486031215610b1057610b0f610921565b5b6000610b1e86828701610ae2565b9350506020610b2f86828701610a4d565b9250506040610b4086828701610947565b9150509250925092565b600082825260208201905092915050565b7f4f6e6c79206f776e657220616e6420706c617965722063616e2077697468647260008201527f61772066756e6473000000000000000000000000000000000000000000000000602082015250565b6000610bb7602883610b4a565b9150610bc282610b5b565b604082019050919050565b60006020820190508181036000830152610be681610baa565b9050919050565b7f496e73756666696369656e742066756e64730000000000000000000000000000600082015250565b6000610c23601283610b4a565b9150610c2e82610bed565b602082019050919050565b60006020820190508181036000830152610c5281610c16565b9050919050565b7f4e487b7100000000000000000000000000000000000000000000000000000000600052601160045260246000fd5b6000610c9382610926565b9150610c9e83610926565b925082821015610cb157610cb0610c59565b5b828203905092915050565b6000819050919050565b6000610ce1610cdc610cd78461095c565b610cbc565b61095c565b9050919050565b6000610cf382610cc6565b9050919050565b6000610d0582610ce8565b9050919050565b610d1581610cfa565b82525050565b6000606082019050610d306000830186610a0c565b610d3d6020830185610d0c565b610d4a6040830184610a8f565b949350505050565b7f6f6e6c792061646d696e00000000000000000000000000000000000000000000600082015250565b6000610d88600a83610b4a565b9150610d9382610d52565b602082019050919050565b60006020820190508181036000830152610db781610d7b565b9050919050565b7f75736520697320616c72656164792077686974656c6973746564000000000000600082015250565b6000610df4601a83610b4a565b9150610dff82610dbe565b602082019050919050565b60006020820190508181036000830152610e2381610de7565b9050919050565b7f4f6e6c79206f776e65722063616e2077697468647261772066756e6473000000600082015250565b6000610e60601d83610b4a565b9150610e6b82610e2a565b602082019050919050565b60006020820190508181036000830152610e8f81610e53565b9050919050565b600081519050610ea581610930565b92915050565b600060208284031215610ec157610ec0610921565b5b6000610ecf84828501610e96565b91505092915050565b7f62616c616e6365206973206c6f77000000000000000000000000000000000000600082015250565b6000610f0e600e83610b4a565b9150610f1982610ed8565b602082019050919050565b60006020820190508181036000830152610f3d81610f01565b9050919050565b6000604082019050610f596000830185610a0c565b610f666020830184610a8f565b9392505050565b60008115159050919050565b610f8281610f6d565b8114610f8d57600080fd5b50565b600081519050610f9f81610f79565b92915050565b600060208284031215610fbb57610fba610921565b5b6000610fc984828501610f90565b91505092915050565b6000606082019050610fe76000830186610a0c565b610ff46020830185610a0c565b6110016040830184610a8f565b949350505050565b7f7573657220697320616c726561647920626c61636b6c69737465640000000000600082015250565b600061103f601b83610b4a565b915061104a82611009565b602082019050919050565b6000602082019050818103600083015261106e81611032565b905091905056fea2646970667358221220b04df43825b6d7f800b274bc881f4c0ef2879c1bf3420bbffe8b912c29ca7def64736f6c634300080b0033",
  "linkReferences": {},
  "deployedLinkReferences": {}
}